:020000040800F2
:1000000010E404208D0300087D790008CF3F00082C
:1000100049720008991E0008E189000800000000EC
:10002000000000000000000000000000E97A000865
:10003000171F000800000000B9790008D97F0008E8
:10004000A7030008A7030008A7030008A7030008E8
:10005000A7030008A7030008191F0008A70300084A
:100060002F1F0008391F0008A7030008A703000876
:10007000A7030008A7030008A7030008A7030008B8
:10008000A7030008A7030008A7030008A7030008A8
:10009000A7030008A7030008A7030008A703000898
:1000A000A7030008A7030008A7030008A703000888
:1000B000A7030008A7030008A7030008A703000878
:1000C000A7030008A7030008A7030008A703000868
:1000D000A7030008C9880008A70300086989000869
:1000E000231F0008A7030008A7030008A7030008B0
:1000F000A7030008A7030008A7030008A703000838
:10010000A7030008A7030008A7030008A703000827
:1001100085810008D5810008A703000845800008F4
:10012000A7030008A7030008A7030008A703000807
:10013000A7030008A7030008A7030008A7030008F7
:10014000A7030008A7030008A7030008A7030008E7
:10015000A7030008A7030008A7030008A7030008D7
:10016000A7030008A7030008A7030008A7030008C7
:10017000A7030008A7030008A70300080000000069
:10018000A7030008A7030008A7030008A7030008A7
:10019000A7030008A7030008A7030008A703000897
:1001A000A7030008A7030008A7030008A703000887
:1001B000A7030008A7030008A7030008A703000877
:1001C000A7030008A703000800000000A703000819
:1001D000A7030008A7030008A7030008A703000857
:1001E000A7030008A7030008A7030008A703000847
:1001F000A7030008A703000800F002F800F0B6F813
:100200000AA090E8000C82448344AAF10107DA4571
:1002100001D100F0ABF8AFF2090EBAE80F0013F00D
:10022000010F18BFFB1A43F00103184710E4000048
:1002300030E4000010F8013B0A4413F0030408BF47
:1002400010F8014B1D1108BF10F8015B641E05D0AA
:1002500010F8016B641E01F8016BF9D1002D15D067
:1002600010F8014B03F00C030C2BA1EB04040ABFA4
:1002700010F8013BA4EB8314A4EB032405F1010364
:1002800014F8016B5B1E01F8016BF9D5914238BF80
:1002900010F8013BD1D3704700230024002500262D
:1002A000103A28BF78C1FBD8520728BF30C148BFD9
:1002B0000B6070476E2900F0CD82702900F04586F2
:1002C000662909F0C484652909F0C184672909F009
:1002D000BE84612909F0BD8403681B0A28BF41F070
:1002E0008001692900F0F880642900F0F580752903
:1002F00000F0F2806F2900F0D285782900F0118695
:10030000E92900F06D85E42900F06A85F52900F0FF
:100310006785EF2900F0CF85F82900F01086036883
:10032000DB0928BF41F08001632900F0DC847329D8
:1003300000F0E184E32901F02980F32901F02E8007
:10034000002070471FB509F07DFC00F009FE040095
:100350000020002109F060FC401C606000200021AA
:1003600009F044FCE0601FBD10B510BD01F0B0F80D
:100370001146FFF7E7FF09F009F901F0D7F803B4D8
:10038000FFF7F2FF03BC09F00AF8000009488047B4
:1003900009480047FEE7FEE7FEE7FEE7FEE7FEE767
:1003A000FEE7FEE7FEE7FEE704480549054A064B7F
:1003B00070470000E17F0008F901000810F20320F7
:1003C00010E4042010F4032010F403207047000010
:1003D0001CB50C46064B7B4469460090204600F055
:1003E00060FC04460020694600F06EFC20461CBDFF
:1003F000EF0800000FB4044910B503AA029800F0FA
:100400007FFC10BC5DF814FB0C0002200FB41CB57F
:10041000084B06AA7B4469460090059800F041FC11
:1004200004460020694600F04FFC20461CBC5DF8E5
:1004300014FB0000B108000070B50446856900682F
:10044000C10601D5302600E02026C00707D070BDC8
:10045000D4E9012130469047206A401C20626D1E7D
:10046000F6D570BD70B5044685690078C00707D120
:1004700070BDD4E9012120209047206A401C2062F1
:100480006D1EF6D570BD70B50C460546012A05D027
:100490002878800600D5EA69002302E0012305E000
:1004A0005B1C934202D2E05C0028F9D1A869E618EF
:1004B000C01AA861286A184428622846FFF7BCFFC2
:1004C00004E0D5E9012114F8010B9047B442F8D3B8
:1004D0002846FFF7C7FF70BD2DE9F041064600240E
:1004E00010687529314616A510D000F048F900288B
:1004F00002DA404213A507E031688A0701D512A548
:1005000002E0490704D511A5012401E000F040F9FB
:1005100000210A2206F1240709E0B0FBF2FCB0FB3F
:10052000F2F302FB1C00303078541846491C0028B6
:10053000F3D123462A463046BDE8F04100F031B9F8
:10054000000000002D0000002B0000002000000033
:100550002DE9F05F894604464FF0000ADFF874B1D8
:10056000FB44C0F820A02046E1688847002874D0EA
:10057000252806D0D4E901219047206A401C20623A
:10058000F1E700265F462046E168884720280546B7
:1005900007DB312D05D2781910F8200C08B106437D
:1005A000F1E7B00701D526F00406C4F81CA0002727
:1005B000C4F818A02A2D09D0284608F0E9FE38B35F
:1005C00004EB8708303DC8F8185019E059F8041BAF
:1005D000204604EB87029161E1688847012F0546B8
:1005E00018D1E069002820DA26F020061DE0D8F8AE
:1005F000180000EB800005EB40003038C8F8180008
:100600002046E1688847054608F0C2FE0028EED182
:10061000012F0AD02E2D08D12046E16888477F1C83
:100620000546022F46F02006C4DBA069002803DA45
:10063000404246F00106A061F00701D026F0100606
:100640006C2D0BD0682D09D04C2D39D06A2D35D0AA
:10065000742D35D07A2D33D016E038E0E1682F467E
:1006600020468847B842054609D16C2F26D04FF462
:100670008060E168064320468847054604E06C2F09
:100680001AD04FF4807006430DB3A5F1410019282C
:1006900002D8203546F400664A46294620462660A0
:1006A0004E46FFF707FE80B101280BD0F61D26F05D
:1006B000070000F1080956E74020E4E78020D8E76A
:1006C0000020D6E706F104094DE7284652E7206AE4
:1006D000BDE8F09F9CDE000030B505460B462A467B
:1006E00013F8014B12F8010B08B1A042F8D01CB16D
:1006F000002802D06D1CF1E7284630BD10B5203A25
:10070000C0F00B80B1E81850203AA0E81850B1E8CA
:100710001850A0E81850BFF4F5AF5FEA027C24BF80
:10072000B1E81850A0E8185044BF18C918C0BDE877
:1007300010405FEA827C24BF51F8043B40F8043B40
:1007400008BF7047D20728BF31F8023B48BF11F8F5
:10075000012B28BF20F8023B48BF00F8012B70474F
:10076000704770477047704710B500F0FDFB006898
:1007700010BD10B5044600F0F7FB046010BD096819
:100780004A0501D540B27047C905FCD500B2704793
:1007900009684A0501D5C0B27047C905FCD580B2C9
:1007A00070472DE9F0470D4699469246044600F100
:1007B00024080168880604D5E06921F01001216051
:1007C00000E00120A84201DD471B00E00027A169ED
:1007D0007A1902EB0900081AA0612078C00602D439
:1007E0002046FFF729FE002608E0D4E901211AF887
:1007F00006009047206A401C761C20624E45F4DBC0
:100800002078C0060AD52046FFF716FE06E0D4E998
:10081000012130209047206A401C2062381EA7F139
:100820000107F4DC07E0D4E9012118F8050090473E
:10083000206A401C2062281EA5F10105F3DC204639
:10084000FFF710FE2078000602D50220BDE8F087F1
:100850000120FBE711680268006A530501D50870A2
:100860000AE0D30501D5088006E0130603D5C217B8
:10087000C1E9000200E008600120704770472DE9DF
:10088000FF4F0C461E464FF0FF378BB0D2E90001F8
:10089000DDF860800A908A46C1F30A5505B93D46E5
:1008A000002108464FF00000BAF1000F00F44000AC
:1008B00005DA00EB80004FF4400101EA50004FEAF6
:1008C0009059B9F1010F00DDB9460A9850EA4A0083
:1008D0000ED044F61050A5F2FF3545432F14B8F161
:1008E000000F1ED07542291E1EDDC9F100021CE05A
:1008F000B8F1010F4FF0000001D0302103E0F243C6
:1009000005E02154401CB042FBDB304600220021B0
:1009100021540B99C1F80880C1E900200FB0BDE84F
:10092000F08FBD1B6D1CDEE74A4600DA694206A85F
:1009300000F038FD06AB93E8070003AB83E807003F
:1009400050460A9900F030FE8DE80700A0F50050EF
:100950001F3800900398002D09DD42F21F014A461E
:10096000084403A90390684601F08FF808E0A0F559
:1009700000504A461F3803A90390684601F099F8D1
:100980008DE807000004000C03D04FF0FF30410851
:1009900000E01046B8F1000F03D000220092154687
:1009A0001EE0751E05D400F0E3FA303262556D1E6C
:1009B000F9D5B3460122084302D000227F1C04E08F
:1009C0002078302801D100227F1E002A099786D086
:1009D0001DE0112D07DA00F0CBFA303262556D1CA4
:1009E00050EA0102F5D1084302D00098C8B10EE0E8
:1009F0000021681E05E0235C625C63542254401EA3
:100A0000491C8142F7DBAB46A81B401E0990002021
:100A100004F80B000B98099AC0F80880C0E9002B75
:100A20007CE711264FF0000859E72DE9F04F884682
:100A30000446D21D22F0070191B0D1E90001CDE9B1
:100A40000A0108F03FF902460B98C00F01D02D2093
:100A500007E02068810701D52B2002E0202101EA70
:100A6000C000032A099001D0072A05DB034641464E
:100A7000204600F041FC0BE12078800601D5E069BA
:100A800000E00620B8F1650F814606D0B8F1660F88
:100A900018D0B8F1670F70D131E00020B9F1110F13
:100AA000009001DB112301E009F101030AAA01A969
:100AB0000CA8FFF7E4FEDDE90C70002609F1010542
:100AC000834647E001204B4600904FF000470AAABA
:100AD00001A90CA8FFF7D3FEDDE90DB00C995D4626
:100AE000002610B909F101000D18B9EB050003D477
:100AF000C0F1FF3609F10105A5EB09002BE0B9F1C2
:100B0000010F01DA4FF001090020B9F1110F009037
:100B1000484601DD112300E003460AAA01A90CA8FA
:100B2000FFF7ADFEDDE90C704D46002683462078C8
:100B300000070AD4AB4500DA5D4601A8012D04DDAB
:100B4000411911F8011C302907D04F4502DA17F17D
:100B5000040F04DA012082460FE06D1EEEE7002F3D
:100B600002DCED1B3E4403E0781CA84200DD7D1C46
:100B7000B81B00F1010A4FF000472078000703D4AA
:100B8000AA4501DB4FF0FF3A0021B7F1004F0DF10C
:100B900043088DF8431024D002202B23002F01DAC4
:100BA0007F422D230A21021EA0F1010000DC5FB16B
:100BB00097FBF1FC97FBF1F201FB1C7C17460CF153
:100BC000300C08F801CDEEE7A8F101000370218890
:100BD000090501D5452100E06521A0F1010800F8D3
:100BE000011C09980FA9A1EB0807FF1D00B1012006
:100BF000411901EBEA70A1693844081A401EA0614E
:100C00002078C00602D42046FFF716FC099828B1C8
:100C1000D4E901219047206A401C20622078C00658
:100C200022D52046FFF708FC1EE0002E04DBB3456A
:100C300002DD01A8805D00E03020D4E90121904769
:100C4000206A401C2062761CAAF101005FEA000ABB
:100C50000AD100F085F9C0680168405CD4E901213F
:100C60009047206A401C2062281EA5F10105DCDCAB
:100C700007E0D4E9012118F8010B9047206A401CD5
:100C80002062381EA7F10107F3DC2046FFF7EAFBDC
:100C9000032011B043E6000001694A1C0261087894
:100CA000704700B58FB0CDE90131002105910549AC
:100CB0007944CDE9031011466846FFF749FC0FB0AF
:100CC00000BD0000E5FFFFFF0A6802F8010B0A60A3
:100CD000704710B5436913B1AFF3008001E0FFF72F
:100CE000D2FB012010BD127800F124010A7000220D
:100CF0004A700122EDE711684FF0FF32E9E700008A
:100D0000074B70B50D467B44FFF7CBFF04462846E2
:100D100000F0B6FB10B14FF0FF3070BD204670BD43
:100D2000678800002DE9FF5F15468A460446DFF814
:100D3000AC80F8440027D8E900103E46CDE9001009
:100D400010E03AF816106A4602A800F09DFB411C1C
:100D500007D02178890603D5E269391891420DD868
:100D60000744761C2078800602D5E069B84205DD8C
:100D7000AE42E6DB3AF816000028E2D1A069C01BBB
:100D8000A0612046FFF758FBD8E90010CDE900101C
:100D9000002017E03AF818106A4602A800F074FB29
:100DA000B0F1FF3F81460BD000250DF1080B05E0A7
:100DB000D4E901211BF8050090476D1C4D45F7D380
:100DC00008F10100B0428046E4DB206A384420622A
:100DD0002046FFF747FBBDE8FF9F0000DED600007E
:100DE0002DE9F0418046D21D22F007020025D2E90C
:100DF0000002F52915A614D0011E72F1000106DAD1
:100E00000023D0EB030063EB020211A608E0D8F840
:100E100000108B0701D50FA602E0490701D50EA6E9
:100E200001251146002408F1240704E000F0A0F891
:100E300030323A55641C50EA0102F7D12B46324653
:100E400021464046BDE8F041FFF7ABBC0000000082
:100E50002D0000002B0000002000000030B4002115
:100E600000F1240408E002F00705D208303542EA18
:100E70004372DB086554491C52EA0305F3D1046848
:100E8000002310A2250707D5A40600D421B1C46908
:100E900001230DA2641EC46130BCFFF782BC10B5F3
:100EA000044621461068FFF773FC02462046BDE861
:100EB00010400023D2E7D21D22F00701D1E9002320
:100EC000CCE700000000000030000000F0B40D4648
:100ED0000188090502D5214C7C4402E01F4C7C446A
:100EE0000E34002100F1240608E002F00F07120979
:100EF000E75D42EA03721B097754491C52EA030773
:100F0000F3D102780023120704D5702D06D009B161
:100F1000022311342246F0BCFFF743BC01231034F6
:100F2000F8E770B504460D4621461068FFF730FC1F
:100F3000024629462046BDE870400023C6E7D21D80
:100F400022F00703D3E90023C0E70368126843F0E7
:100F5000200303600823C3610023B7E740D50000E6
:100F600000487047D0F1032000487047B0F10320DB
:100F700030B5B0F10A024FEA900E71F100034EEA6B
:100F8000817EB0EB0E0061EB91014FEA101E4EEA3C
:100F9000017E10EB0E0041EB11114FEA102E4EEACC
:100FA000016E10EB0E0041EB11214FEA104E4EEA9C
:100FB000014E10EB0E0041EB1141401841F10001D0
:100FC0004FEAD00040EA41704FEAD10110EB8005B2
:100FD0004FEA810444EA907444EB01046D1944EB38
:100FE0000404521BA3414FF0000348BF0A3200D54E
:100FF00030BD401C41F1000130BD00002DE9F04F33
:1010000004460D46D21D22F0070089B0D0E90097B2
:101010004846394607F056FE0246F80F01D02D2308
:1010200007E02068810701D52B2302E0202101EA97
:10103000C0038DF820300BB1012000E00020032A0E
:10104000824601D0072A04DB2946204600F054F9E5
:101050003FE12078800601D40D2500E0E569C7F363
:101060000A560D2D49DA00214FEA175B08464FF06A
:101070000000002F00F4400007DA00EB80004FF47E
:10108000400100EBD07001EA60008115012901DD0B
:101090004FF0FF3100224FEA850CBCF1180F06D348
:1010A0001346ACF118004FF08052C24003E04FF4F9
:1010B000801323FA0CF30CF10C0CBCF1200F04D3B9
:1010C000ACF1200C09FA0CF001E007FA0CF0002951
:1010D0004FF0004801DD18B90FE00ED140450CD3A8
:1010E00019EB02095F4121B9404502D19F4329EA2A
:1010F0000209BBEB175F00D0761C2088000502D5E3
:101100007B48784402E07A487844193808AA3023AA
:1011100002F80A30037C0AF10101002E0AF1020AEA
:1011200053546A4602DC4FF0300101E04FF03101C8
:101130004FF001088DF8001002D0A6F2FF3603E050
:1011400059EA470100D06B4E002D02DC21780907D7
:1011500004D54FF002082E218DF80110C44600215D
:101160000BE0C7F303433F01C35C491C6D1E02F84B
:101170000830052908F1010801DA002DF1DC002111
:101180000CE000EB1973491C1B786D1E082902F84E
:1011900008304FEA091908F1010801DA002DF0DCE6
:1011A00021688B0602D516E0A8F10108E04505DDAF
:1011B00002EB080313F8013C302BF5D0B8F1000F17
:1011C00009DD02EB080313F8013C2E2B03D10907BC
:1011D00001D4A8F10108002D05DD3E2102F8081018
:1011E0006D1E08F10108407C002E02F8080008F18D
:1011F000010804DA2D20764202F8080002E02B20D4
:1012000002F808000A214FF47A70864208F10108BA
:101210000BDB96FBF0F3303302F8083096FBF0F36B
:1012200008F1010800FB136601E0642E0CDB64206A
:1012300096FBF0F3303302F8083096FBF0F308F138
:10124000010800FB136601E00A2E06DB96FBF1F0B5
:10125000303002F8080008F1010896FBF1F001FBBC
:101260001060303002F80800A16908F1010808EBAD
:10127000050202EB0A00081AA0612078C00602D419
:101280002046FFF7D9F8216A08AE01EB0A00206278
:1012900004E0D4E9012116F8010B9047BAF1010AE4
:1012A000F7D22078C00602D52046FFF7C5F86E4673
:1012B00009E016F8010B3E280FD0D4E90121904730
:1012C000206A401C2062B8F10108F2D22046FFF7E4
:1012D000C9F809B00320BDE8F08F206A28442062D5
:1012E00003E0D4E90121302090476D1EEBD3F8E7ED
:1012F00075D4000002FCFFFF2DE9F0411F460446B3
:1013000003260168072A01F4006004DB08B116A572
:1013100005E016A503E008B115A500E015A521F02C
:1013200010002060A069C01EA0610FB1401EA06126
:101330002046FFF781F84FB1D4E9012138469047A4
:10134000206A401C2062C01C206206E0206AFAE786
:10135000D4E9012115F8010B9047761EF8D22046FA
:10136000FFF780F8BDE8F0814E414E006E616E00DF
:10137000494E4600696E660010B5436913B1AFF37C
:10138000008001E0FFF7CEFC012010BD128800F1C3
:10139000240182840022C2840122EDE711684FF00B
:1013A000FF32E9E72DE9F047814616468AB0334817
:1013B00078440DC88DE80D0030487844801C03AC9B
:1013C0000DC884E80D0041F69B300844372190FB9E
:1013D000F1F290FBF1F5A5F1800501FB12041B3C35
:1013E00002D56442012000E00020DFF890A0804692
:1013F0000027FA44AAF1BE0A0DE0E00709D0324600
:10140000684607EB47010AEB810100F052FB8DE8CB
:10141000070064107F1C002CEFD1184F7F44AC3FB5
:1014200018E0E80714D007EB04100DF1180A90E853
:101430000E008AE80E00C068F04201D198190890A9
:10144000324606A903A800F034FB03AB83E807008B
:101450006D10641C002DE4D132466946B8F1000FCE
:1014600003A802D000F011FB01E000F022FBC9E963
:101470000001C9F808200AB0BDE8F08758D2000082
:10148000007B00F08000704770B516460C4605469C
:1014900000F044F8036893F80101012806D0FF2CFE
:1014A0000FD8185D68B101202C7070BDD3F807010A
:1014B0003246214603F2071303442846BDE8704034
:1014C00018474FF0FF3070BD00487047B0F103205F
:1014D0007546FFF7F9FFAE4605006946534620F012
:1014E0000700854618B020B5FEF75EFFBDE8204036
:1014F0004FF000064FF000074FF000084FF0000BD0
:1015000021F00701AC46ACE8C009ACE8C009ACE882
:10151000C009ACE8C0098D467047000010B5FFF760
:101520001FFD001D10BD00BFF186000010B5044670
:10153000AFF300802046BDE81040FEF720BF00005A
:101540004FF0013C50F8042B51F8043B9A4215D15E
:10155000A2EB0C03934313EACC130BD150F8042BEA
:1015600051F8043B9A4209D1A2EB0C03934313EACE
:10157000CC13E7D04FF00000704700BFD01A01BA7B
:10158000B1FA81F101F0180122FA01F0CB40C1F16A
:101590002001DBB2C0B2C01A2CFA01F3D11A914378
:1015A00011EAC311E6D170475FEA400C08BF91F021
:1015B000000F4FEA8C234FEAC12243EA51514FEA10
:1015C0001C5018BF00F5F0404FEA300018BF41F042
:1015D00000415FEA6C5C00F02980BCF1FF3F08BF6E
:1015E00040F080407047130C06BF12044FF0100CFF
:1015F0004FF0000C130E04BF12020CF1080C130F75
:1016000004BF12010CF1040C930F04BF92000CF103
:10161000020CD30F04BF52000CF1010C11464FF025
:101620000002A0F11F00A0EB0C00704711F0004F6A
:1016300008BF704731F000413FF4D5AF0B0C06BF37
:1016400009044FF0100C4FF0000C0B0E04BF090200
:101650000CF1080C0B0F04BF09010CF1040C8B0FEB
:1016600004BF89000CF1020CCB0F04BF49000CF140
:10167000010CCCF12003A0EB0C0022FA03F302FAD8
:101680000CF241EA030100F10100704720F07F4CA9
:1016900080EA030023F07F47ACEB070303F57C539C
:1016A00000F0004003F1FF032DE980494FEA154B9C
:1016B00009B44FEA144325EA0B4E24EA03480FF21B
:1016C000042606EB132749083E785FEA320203FB43
:1016D0000667C7F5000707FB06F64FEA54374FEADF
:1016E000D64606F1020607FB066CCCF1005C4FEA19
:1016F0001C472CEA074C07FB06F40CFB06F504EB31
:1017000015464FEA961634BF00204FF000404FEACE
:10171000D13706FB07FC4FEA1C4C0CFB0BF7D21B26
:1017200003FB0CF761EB07010CFB0EF7B0EB074076
:1017300072EB17420CFB08F734BFA2EB0742B2EB87
:10174000074261EB17414FEA0C444FEA910706FB51
:1017500007FC4FEA1C4C0CFB0BF7B0EBC74072EBDD
:10176000573203FB0CF734BFA2EBC742B2EBC742C0
:1017700061EB57310CFB0EF7B0EBC70072EB577201
:101780000CFB08F734BFA2EBC702B2EBC70261EB58
:101790005771039F4FEA816141EA921104EBCC0437
:1017A0004FEAD1374FEA826206FB07FC42EA901209
:1017B0004FEA80604FEA1C4C0CFB0BF7D21B03FB7B
:1017C0000CF761EB07010CFB0EF7B0EB074072EB77
:1017D00017420CFB08F734BFA2EB0742B2EB0742FB
:1017E00061EB17414FEA8C554FEA910704EB9C24BB
:1017F00006FB07FC4FEA1C4C0CFB0BF7B0EBC74099
:1018000072EB573203FB0CF734BFA2EBC742B2EBCB
:10181000C74261EB57310CFB0EF7B0EBC70072EB20
:1018200057720CFB08F734BFA2EBC702B2EBC7023A
:1018300061EB577115EB4C254FEA816141EA92113A
:101840004FEA82624FEAD13742EA901206FB07FC68
:1018500044F100044FEA80604FEA1C4C0CFB0BF78C
:10186000D21B03FB0CF761EB07010CFB0EF7B0EB8F
:10187000074072EB17420CFB08F734BFA2EB07429C
:10188000B2EB074261EB174115EB1C154FEA8131B2
:1018900041EA92414FEA823242EA90424FEA803076
:1018A0004FEA0C7644F1000448EA03434EEA0B4841
:1018B0004FF0000EB2EB080C71EB030724BF624639
:1018C00039464EEB0E0E4FF0000B001852414941C5
:1018D0004BEB0B0BB2EB080C71EB03077BF1000B2E
:1018E00024BF624639464EEB0E0E4FF0000B001837
:1018F000524149414BEB0B0BB2EB080C71EB030768
:101900007BF1000B24BF624639464EEB0E0E51EAC6
:10191000020718BF46F0010616EB0E7655F10002DD
:1019200054F1000103D5BDE88901BDE80088BDE898
:101930008901BDE80048B619524141EB0101A3F10C
:101940000103704780807F7E7D7C7B7A7978777613
:1019500076757473727171706F6E6E6D6C6C6B6A8C
:101960006A6968686766666564646363626161602A
:10197000605F5F5E5E5D5D5C5C5B5B5A5A595958A7
:101980005857575656555555545453535252525111
:10199000515050504F4F4F4E4E4D4D4D4C4C4C4B67
:1019A0004B4B4A4A4A4949494848484747474746AE
:1019B00046464545454444444443434343424242EA
:1019C00042414141002B26D4770021D01CB54FEA7B
:1019D000370703B44FF010004FF010014FF0000034
:1019E0000FBCBDE810400BF1010BBBF1010F08BFAC
:1019F0005FEA170722BF12F1010211F101014FF056
:101A0000004143F1000300F0004043EA000070474A
:101A1000F9D35708DAE746EA064613F1400F4FEAD2
:101A200016461FDD13F1200FDFBF16430A460021C3
:101A300020335B42C8D0C3F1200746EA064602FACB
:101A400007F74FEA164646EA0706C3F1200722FACF
:101A500003F201FA07F721FA03F14FF0000342EA1B
:101A60000702B1E746EA020646EA06464FEA16468C
:101A700046EA0106BCBF46EA0646360C4FF00003B4
:101A80004FF000024FF000019EE72DE9C048934659
:101A900030B491E8380007C831EA400C48BF34EA56
:101AA000430C03D5FFF7F2FDFFF78CFFF0BCBDE858
:101AB00000882DE9C048934630B491E8380007C843
:101AC00010F0804F08BF13F0804F03D100F005F8ED
:101AD000FFF778FFF0BCBDE8008820F07F4780EA80
:101AE000030023F07F4C07EB0C03A3F57C5300F0BD
:101AF0000040A3F1FE0392F0000F00F0B38095F0D8
:101B0000000F00F077802DE901494FEA11404FEABC
:101B1000144621EA004800FB06FC24EA064708FBBD
:101B200006F607FB08F800FB07F718EB06484CEB36
:101B3000164C4FEA124B18EB07484FEA15464CEB90
:101B4000174022EA0B4E0BFB06FC25EA06470EFB6C
:101B500006F607FB0EFE0BFB07F71EEB064E4CEBE3
:101B6000164C4FF000061EEB074E4CEB174B18EBD4
:101B70000B0840F1000018EB0E0B58EB000840F189
:101B800000008F1A4FF000013CBFC943661B14BF11
:101B9000B5EB040C00213CBFC943F61B4FEA1744C8
:101BA0004EEA8E0E27EA04454FEA1C4704FB076203
:101BB0002CEA074C05FB07F70CFB05F604FB0CFCB5
:101BC00016EB074642EB174216EB0C4642EB1C4263
:101BD0001BEB060658EB0202414146EA9E0601D580
:101BE000BDE80189B619524141EB0101A3F101039E
:101BF000BDE801894FEA14454FEA114724EA05463A
:101C000021EA074C05FB07F406FB07F70CFB06F17E
:101C100005FB0CFC11EB074144EB17444FEA12475C
:101C200011EB0C4144EB1C4422EA074C05FB07F284
:101C300006FB07F70CFB06F605FB0CFC16EB07464C
:101C400042EB174216EB0C4642EB1C456A1854F166
:101C5000000148BF7047B619524141EB0101A3F1A1
:101C60000103704795F0000F37D04FEA11424FEA59
:101C7000144721EA024624EA074C02FB07F106FB5F
:101C800007F70CFB06F402FB0CFC14EB074441EBDA
:101C900017414FEA154714EB0C4441EB1C4125EA70
:101CA000074C02FB07F506FB07F70CFB06F602FBE9
:101CB0000CFC16EB074645EB174516EB0C4645EBBF
:101CC0001C42121951F1000148BF7047B619524128
:101CD00041EB0101A3F1010370474FEA14454FEABC
:101CE000114724EA054621EA074C05FB07F106FBEC
:101CF00007F70CFB06F24FF0000605FB0CFC12EB9D
:101D0000074241EB174112EB0C4251EB1C4148BF1B
:101D10007047921841EB0101A3F1010370470000E5
:101D20005A49096821F44031594AC2F8041311464E
:101D3000D1F8041342681143544A1160016849689C
:101D400021F480710268516001684A68016942EAC1
:101D50000121026851600168496821F04071026800
:101D600051600168496882681143026851600168E6
:101D7000896821F400610268916001688968C2681D
:101D8000114302689160434A816A914218D0016808
:101D9000896821F070610268916001688968826ACF
:101DA0001143026891600168896821F0405102681E
:101DB000916001688968C26A1143026891600BE012
:101DC0000168896821F07061026891600168896822
:101DD00021F04051026891600168896821F0020198
:101DE0000268916001688A68816942EA410102687B
:101DF0009160016AD1B10168496841F400610268EB
:101E000051600168496821F46041026851600168CD
:101E10004A68416A491E4FF4604393FAA3F3B3FA48
:101E200083F399400A4301684A6005E00168496804
:101E300021F40061026851600168C96A21F47001EF
:101E40000268D1620168CA6A818B491E42EA015167
:101E50000268D1620168896821F4007102689160AA
:101E600001688A68016B42EA412102689160016859
:101E7000896821F480610268916001688A6841691B
:101E800042EA81210268916070470000042301400A
:101E9000002001400100000F00BFFEE710B500BFA9
:101EA00000BF00BF00BF00BFBFF34F8F00BF00BF28
:101EB00000BF00BF00BF00BFBFF36F8F00BF00BFF8
:101EC00000BF0020114908601148006840F400304C
:101ED0000F49086000BF00BF00BFBFF34F8F00BFB6
:101EE00000BF00BF00BF00BF00BFBFF36F8F00BFC8
:101EF00000BF00BF00BF05F0A9FD04484C300068DA
:101F000040F0040001494C31086010BD50EF00E082
:101F100014ED00E07047704710B5012000F09EFD01
:101F200010BD10B54FF4005000F098FD10BD10B575
:101F3000042000F093FD10BD10B5082000F08EFDC8
:101F400010BD000000B587B000BF3248006840F007
:101F50000100304908600846006800F00100019067
:101F600000BF00BF00BF0846006840F004000860E2
:101F70000846006800F00400019000BF00BF00BFE9
:101F80000846006840F0800008600846006800F0DD
:101F90008000019000BF00BF012002901E48039006
:101FA0000220049002A91D4800F066FD4FF4005085
:101FB00002901B4803900120049002A9194800F0E8
:101FC0005BFD0C20029002A9174800F055FD00228D
:101FD0000221062000F0DCFE062000F0CCFE0122EB
:101FE0000221082000F0D4FE082000F0C4FE0222E6
:101FF0001146092000F0CCFE092000F0BCFE0322AF
:102000000221282000F0C4FE282000F0B4FE07B012
:1020100000BD0000303802400000111000000240F6
:102020000000211000080240001C024070B5044668
:102030001D460023B5F5804F13D154F822300C48CB
:102040000340D1E9000640EA06108E6840EA062007
:102050008E8940EA06408E693043034344F82230BB
:1020600003E06FF0704044F82200002070BD0000D3
:102070000000F0CF10B502460023086852F8203067
:102080001B480340D1E901042043CC6820430C697C
:1020900020434C6920438C692043CC6920430C6A5F
:1020A00020434C6A20438C6A2043CC6A20430C6B4B
:1020B00020438C6B20434C6B2043034388680828E3
:1020C00001D143F04003086842F82030086BB0F5B6
:1020D000801F05D1086818B110680C6B2043106090
:1020E000086818B110684C6B20431060002010BDC8
:1020F0008004C0FF30B5034614460022601C53F82C
:10210000202002F04042D1E9000540EA05108D6828
:1021100040EA05208D8940EA0545088A401E45EAC7
:102120000055087D801E45EA00608D692843024302
:10213000601C43F82020186800F4801038B15868FB
:1021400020F47002088A401E42EA00525A600020C1
:1021500030BD70B504460D462946204605F0F8FA14
:102160002946204605F072F82946204605F022F956
:102170002946204605F052F92946204605F0AAF9DD
:102180002946204605F0B8FA70BD00000D480088C9
:1021900000F4004020B10C4801780020094A10806A
:1021A000312901D101207047322901D10220FAE7FB
:1021B000332901D10320F6E7342901D10420F2E7C5
:1021C0000020F0E716000220A0E203202DE9FC47E2
:1021D00007460D4616464FF000080024A14600228F
:1021E0001021684800F05CFD642007F0E5F85CE031
:1021F00026B93A466F2164A0FEF7FCF8012E04D1FF
:102200003A46DE2160A0FEF7F5F800BF604800689E
:10221000C069C0F380100028F8D0642007F0CCF823
:1022200004E0642007F0C8F8601C84B259480088B4
:1022300000F4004008B90A2CF3DB5648008800F48B
:10224000004068B353480088C0F30D0A002411E031
:102250005148005D5B280BD04F48005D5D2807D0DA
:102260004D48005D05F8090009F101001FFA80F9E9
:10227000601C84B25445EBDB002404E0285D303858
:102280002855601C84B24C45F8DB28780A2803DB0B
:1022900000202870BDE8FC8700203E49088007E048
:1022A00008F101001FFA80F80024B8F1020F9FDB4B
:1022B00000BF01221021334800F0F2FCB8F1020FF8
:1022C00001DB0020E6E7002E4BD137B1012F1AD0F9
:1022D000022F2ED0032F43D141E030A018210B460E
:1022E0004FF48272CDE9001096210A2004F078FEA6
:1022F00000201821CDE900102A7801239621A02082
:1023000004F0A1FE2CE029A018210B464FF48272A4
:10231000CDE9001096210A2004F062FE0020182169
:10232000CDE900102A7801239621A02004F08BFE2D
:1023300016E022A018210B464FF48272CDE900105E
:1023400096210A2004F04CFE00201821CDE900104F
:102350002A7801239621A02004F075FE00E000BF3A
:102360000AE01AA018210B464FF48272CDE9001042
:102370008C210A2004F034FE002006490880012048
:1023800088E7000000000240256425640D0A000073
:10239000A8E903201000022010E10320526F6F6DA6
:1023A000206E756D6265723A0000000050726F64B5
:1023B000756374206E756D6265723A00466163657F
:1023C000206E756D6265723A000000004F62737492
:1023D00061636C6520646574656374696F6E3A004F
:1023E0002DE9FC41FF270026052005F0DDFB10B399
:1023F00020A010210B46C822CDE90010DC210A20C4
:1024000004F0EEFD00BF4FF4165007F08FF90320E3
:1024100005F0A2FB4FF4164007F088F91B4805F0C1
:10242000E3FB0746701CC6B2052005F0BDFB10B1EA
:102430000FB10A2EE7DB1648008800F40040B8B15F
:1024400013480088C0F30E05002405E01148005D24
:1024500011490855601C84B2AC42F7DB00200C49DE
:1024600008800D4908550D48FFF773FE00F018F875
:10247000BDE8FC81536B7954726146382D4244208B
:1024800053657474696E672E2E2E0000A0860100BD
:102490001200022088E60320C4EB0320E4EE0320B0
:1024A00010B52DED048B82B01F2090490860904834
:1024B000D0F8860000EE100AB8EE400AB0EE408A6E
:1024C0009FED8C0AC8EE000AB0EE608AB7EEE00A13
:1024D000B0EE409B864890F88A0053EC192B86A1F9
:1024E00000908B48FDF792FF894810210B46C822C7
:1024F000CDE9001078210A2004F072FD7C48D0F864
:10250000810000EE100AB8EE400AB0EE408A9FED5E
:10251000790AC8EE000AB0EE608AB7EEE00AB0EEC3
:10252000409B734890F8850053EC192B79A10090DB
:102530007748FDF76BFF764810210B46C822CDE99E
:1025400000108C210A2004F04BFD6948D0F8A0004F
:1025500000EE100AB8EEC00AB0EE408AB2EE040AED
:10256000C8EE000AB0EE608AB7EEE00AB0EE409B1B
:1025700053EC192B6DA16648FDF748FF6448102104
:102580000B46C822CDE90010A0210A2004F028FD46
:102590005748B0F8A40000EE100AB8EE400AB0EEBA
:1025A000408A9FED670AC8EE000AB0EE608AB7EE77
:1025B000E00AB0EE409B53EC192B62A15448FDF7A2
:1025C00025FF534810210B46C822CDE90010B42145
:1025D0000A2004F005FD464890F89900032813DC12
:1025E000434890F899005C4951F820205BA1484885
:1025F000FDF70CFF464810210B46C822CDE900101C
:1026000011460A2004F0ECFC394890F88C2056A1C1
:102610003F48FDF7FBFE3E4810210B46C822CDE99E
:102620000010DC210A2004F0DBFC31480078642132
:1026300090FBF1F201FB1204224652A13448FDF74F
:10264000E5FE334810210B46C822CDE90010F021E9
:102650000A2004F0C5FC26484078642190FBF1F282
:1026600001FB120422464EA12948FDF7CFFE28485F
:1026700010210B46C822CDE900104FF482710A20C8
:1026800004F0AEFC1A4890F87D000090184890F8CD
:102690007C30B0F87A2049A11D48FDF7B7FE1C48F0
:1026A00010210B46C822CDE900104FF48C710A208E
:1026B00004F096FC0E4890F8800000900C4890F8CA
:1026C0007F3090F87E2044A11148FDF79FFE10480E
:1026D00010210B46C822CDE900104FF496710A2054
:1026E00004F07EFC02B0BDEC048B10BD1C00022087
:1026F000E4EE03200050C3474C6F6E676974756445
:10270000653A252E35662025316320202000000003
:102710008CEF03204C617469747564653A252E351D
:10272000662025316320202000000000416C746980
:10273000747564653A252E31666D202020202000B6
:1027400000007A4453706565643A252E33666B6DDC
:102750002F68202020202000B8E003204669782040
:102760004D6F64653A2573004750532B4244205601
:10277000616C696420736174656C6C6974653A2579
:10278000303264004750532056697369626C65208B
:10279000736174656C6C6974653A2530326400004D
:1027A00042442056697369626C6520736174656C7C
:1027B0006C6974653A25303264000000555443203A
:1027C000446174653A253034642F253032642F25F6
:1027D00030326420202000005554432054696D6538
:1027E0003A253032643A253032643A25303264205A
:1027F0002020000070B5044600250CB9012070BDF2
:102800001549A06A884200D000BF206C30B9002072
:10281000606484F83C00204600F020F8206C00F052
:10282000100088B9206C20F4885040F00200206429
:102830002046FFF775FA00206064206C20F002004B
:1028400040F00100206400E0012500BF002084F872
:102850003C0000BF2846D2E70100000F10B586B04B
:10286000044600BF1348006840F4807011490860B6
:102870000846006800F48070009000BF00BF00BFF1
:102880000C481438006840F002000A491439086006
:102890000846006800F00200009000BF00BF03205F
:1028A000019002900020039001A9034800F0E4F891
:1028B00006B010BD4438024000040240014691F8C1
:1028C0003500022803D0802048650120704705208C
:1028D00081F835000868006820F001000A6810607F
:1028E0000020F3E710B50446322006F065FD012C08
:1028F00007D0042C38D0082C52D0B4F5005F32D168
:1029000080E001214F4800F0C3F901282BD14E4847
:10291000007808B9012000E000204B490870084603
:10292000007808B9012000E00020484908704648B6
:10293000007828B101221146454800F0B1F904E0C1
:1029400000220121424800F0ABF94048007828B14C
:10295000012202213E4800F0A3F904E000220221F6
:102960003B4800F09DF96AE004213A4800F090F9F4
:10297000A8B93548007808B9012000E000203249A4
:1029800008700846007828B101221146304800F04E
:1029900087F904E0002201212D4800F081F94EE082
:1029A00008212C4800F074F928BB2748007808B9A2
:1029B000012000E00020244908702448007808B96C
:1029C000012000E00020214908701F48007828B14C
:1029D000012211461E4800F063F904E000220121A3
:1029E0001B4800F05DF91948007828B10122022146
:1029F000174800F055F904E000220221144800F0C5
:102A00004FF91CE04FF40051134800F041F9A8B908
:102A10000E48007808B9012000E000200B4908703A
:102A20000846007828B101220221094800F038F94F
:102A300004E000220221064800F032F900BF00BF86
:102A400010BD0000000002402500022024000220EA
:102A500000040240001C02400008024010B5044679
:102A600004480068204020B1024804602046FFF777
:102A700039FF10BD143C0140F8B502460B46002159
:102A800000250024002000BFE4E0012606FA01F53D
:102A90001E6806EA0504AC4271D15E68022E02D0BF
:102AA0005E68122E13D1CF0802F1200656F82700D7
:102AB0004E07F70E0F26BE40B0434F07FF0E1E69AC
:102AC000BE403043CF0802F1200646F827001068C8
:102AD0004F000326BE40B0431E7906F003064F00A8
:102AE000BE40304310605E68012E08D05E68022E42
:102AF00005D05E68112E02D05E68122E13D1906848
:102B00004F000326BE40B0434F00DE68BE40304356
:102B10009060506801268E40B0431E79C6F30016BF
:102B20008E4030435060D0684F000326BE40B04313
:102B30004F009E68BE403043D0605E6806F080560D
:102B4000B6F1805FA8D100BF444E366846F4804697
:102B5000424F3E603E46366806F48046009600BF0F
:102B600000BF3F4E8F0856F827008E07370F0F26FD
:102B7000BE40B0433B4EB24202D100262EE068E098
:102B8000394EB24201D1012628E0384EB24201D17D
:102B9000022623E0364EB24201D103261EE0354E16
:102BA000B24201D1042619E0334EB24201D10526CA
:102BB00014E0324EB24201D106260FE0304EB2424E
:102BC00001D107260AE02F4EB24201D1082605E0C6
:102BD0002D4EB24201D1092600E00A268F073F0F91
:102BE000BE4030431E4E8F0846F82700274E3068FF
:102BF000A0435E6806F48036B6F5803F00D12043DE
:102C0000224E3060361D3068A0435E6806F4003600
:102C1000B6F5003F00D120431C4E361D3060361DF6
:102C20003068A0435E6806F48016B6F5801F00D1B8
:102C30002043164E08363060361D3068A0435E686B
:102C400006F40016B6F5001F00D120430F4E0C36D7
:102C50003060491C1029FFF418AFF8BD4438024019
:102C60000838014000000240000402400008024011
:102C7000000C024000100240001402400018024004
:102C8000001C02400020024000240240003C0140A1
:102C9000024613690B400BB1012000E00020704791
:102CA0000AB1816101E00B0483617047014800684B
:102CB000704700000400022002480068401C0149DF
:102CC000086070470400022010B50848006840F40E
:102CD000007006490860052000F098F80F2000F009
:102CE00007F800F047F8002010BD0000003C02404B
:102CF00070B50446074800684FF47A71B0FBF1F5EF
:102D0000284600F039FD00222146501E00F040F810
:102D1000002070BD000002204178154A1160017842
:102D2000F9B1121D41681160017B0907C27A41EABD
:102D30000261827A41EAC241427B41EA8241827B5E
:102D400041EA4241C27B41EA0241427A41EA022120
:102D5000027A41EA420102781143054A08321160C1
:102D600005E00021024A121D1160121D116070471A
:102D700098ED00E0704700BF00F01F020121914074
:102D80004209920002F1E022C2F8001100BF704730
:102D90002DE9F05F80460D461646002704F0F0FD51
:102DA000074639462A46334601F00700C0F1070AB4
:102DB000BAF1040F02D94FF0040A01E0C0F1070A8A
:102DC000D14600F1040ABAF1070F02D24FF0000A0F
:102DD00001E0A0F1030AD4464FF0010A0AFA09FA09
:102DE000AAF1010A0AEA020A0AFA0CFA4FF0010BE8
:102DF0000BFA0CFBABF1010B0BEA030B4AEA0B04D9
:102E00002146404604F0C4FDBDE8F09F00BF00F03D
:102E10000702064B19684FF6FF031940044B0B439A
:102E200043EA0221014B196000BF70470CED00E03E
:102E30000000FA0538B5002400BF2048006840F0C3
:102E400080501E4908600846006800F080500090DD
:102E500000BF00BF1A48006840F48030184908607D
:102E6000FFF724FF044607E0FFF720FF001BB0F543
:102E70007A7F01D9032038BD1148406800F48030C2
:102E8000B0F5803FF0D10E48006840F400300C49A6
:102E90000860FFF70BFF044607E0FFF707FF001B82
:102EA000B0F57A7F01D90320E5E70548406800F4D2
:102EB0000030B0F5003FF0D10020DCE740380240A0
:102EC0000070004070B504460D4600266648006854
:102ED00000F00F00A8420ED26348006820F00F00F7
:102EE0002843614908600846006800F00F00A842C6
:102EF00001D0012070BD207800F00200022807D127
:102F00005A48006820F0F000A1680843574908605B
:102F1000207800F00100002860D06068012807D107
:102F2000524808380068C0F34040A0B90120E1E7EA
:102F30006068022807D14D4808380068C0F3406037
:102F400048B90120D6E7494808380068C0F3400076
:102F500008B90120CEE74548006820F00300616809
:102F6000084342490860FFF7A1FE06466068012851
:102F700010D108E0FFF79AFE801B41F288318842A9
:102F800001D90320B6E73948006800F00C00042896
:102F9000F0D123E06068022810D108E0FFF786FE38
:102FA000801B41F28831884201D90320A2E72F48D3
:102FB000006800F00C000828F0D10FE008E0FFF7EF
:102FC00075FE801B41F28831884201D9032091E7C8
:102FD0002648006800F00C000028F0D12248006864
:102FE00000F00F00A8420ED91F48006820F00F0023
:102FF00028431D4908600846006800F00F00A842F9
:1030000001D0012076E7207800F00400042807D1E1
:103010001648006820F4E050E1680843134908604E
:10302000207800F00800082808D11048006820F433
:103030006040216940EAC1000C49086000F04EF888
:103040000A49096801F0F001F02292FAA2F2B2FAFC
:1030500082F2D140064A515CC840064908600F2000
:10306000FFF746FE002045E7003C024008380240DA
:10307000569C0008000002200148006870470000CC
:103080000000022000B5FFF7F7FF0749096801F4C7
:10309000E0514FF4E05292FAA2F2B2FA82F2D14039
:1030A000024A515CC84000BD08380240669C0008D6
:1030B00000B5FFF7E1FF0749096801F460414FF4EB
:1030C000604292FAA2F2B2FA82F2D140024A515C14
:1030D000C84000BD08380240669C000870B5002159
:1030E000002200230020274C246804F00C0424B1A3
:1030F000042C04D0082C41D103E0234840E02348AD
:103100003EE0204C241F246804F03F011D4C241F86
:10311000246804F4800484B11C4CB4FBF1F5194C10
:10312000241F246847F6C076344096FAA6F6B6FA0D
:1031300086F6F44005FB04F20FE0134CB4FBF1F506
:10314000104C241F246847F6C076344096FAA6F641
:10315000B6FA86F6F44005FB04F20A4C241F2468F4
:1031600004F440344FF4403595FAA5F5B5FA85F5E9
:10317000EC40641C6300B2FBF3F001E0024800BFC6
:1031800000BF70BD083802400024F40040787D0183
:1031900038B504460025207800F00100002871D0E1
:1031A000FE48006800F00C0004280DD0FB480068C1
:1031B00000F00C00082813D1F848001F006800F444
:1031C0008000B0F5800F0BD1F44808380068C0F3D8
:1031D0004040002869D06068002866D1012038BDD1
:1031E00000BF6068B0F5803F08D1EC48083800683F
:1031F00040F48030E949083908602EE0606868B919
:10320000E6480838006820F48030E449083908604E
:103210000846006820F4802008601EE06068B0F571
:10322000A02F0DD1DD480838006840F48020DB492C
:10323000083908600846006840F4803008600CE0F7
:10324000D6480838006820F48030D449083908602E
:103250000846006820F48020086000BF606890B1D4
:10326000FFF724FD054606E0FFF720FD401B64281C
:1032700001D90320B3E7C94808380068C0F34040CB
:103280000028F1D011E0FFF711FD054606E0FFF739
:103290000DFD401B642801D90320A0E7BF48083872
:1032A0000068C0F340400028F1D1207800F002000F
:1032B000022873D1B948006800F00C0058B1B74833
:1032C000006800F00C00082821D1B448001F0068F5
:1032D00000F48000D8B9B14808380068C0F3400055
:1032E00020B1E068012801D0012078E7AB48083818
:1032F000006820F0F800F82292FAA2F2B2FA82F204
:10330000216991400843A5490839086046E0E06812
:1033100050B3A2480838006840F001009F490839BE
:103320000860FFF7C3FC054606E0FFF7BFFC401B43
:10333000022801D9032052E7984808380068C0F3F2
:1033400040000028F1D095480838006820F0F800C7
:10335000F82292FAA2F2B2FA82F22169914008436D
:103360008E490839086019E08C480838006820F058
:1033700001008A4908390860FFF798FC054606E015
:10338000FFF794FC401B022801D9032027E783485C
:1033900008380068C0F340000028F1D1207800F020
:1033A0000800082836D16069D0B17C486C300068CC
:1033B00040F0010079496C310860FFF777FC054661
:1033C00006E0FFF773FC401B022801D9032006E743
:1033D00072486C300068C0F340000028F1D019E05A
:1033E0006E486C30006820F001006C496C31086058
:1033F000FFF75CFC054606E0FFF758FC401B02287F
:1034000001D90320EBE665486C300068C0F340004A
:103410000028F1D1207800F00400042871D100BF09
:103420005E483830006840F080505C4938310860B0
:103430000846006800F08050009000BF00BF584868
:10344000006840F4807056490860FFF72FFC05467D
:1034500006E0FFF72BFC401B642801D90320BEE6E1
:103460004F48006800F480700028F2D000BFA068C8
:10347000012808D149486830006840F001004749F8
:10348000683108602DE0A06868B944486830006879
:1034900020F001004149683108600846006820F0CA
:1034A000040008601DE0A06805280DD13B48683085
:1034B000006840F004003949683108600846006837
:1034C00040F0010008600CE034486830006820F0EB
:1034D00001003249683108600846006820F00400A5
:1034E000086000BFA068A8B1FFF7E0FB054609E04F
:1034F000FFF7DCFB401B41F28831884202D90320F0
:103500006DE61BE0254868300068C0F340000028E5
:10351000EED013E0FFF7CAFB054608E0FFF7C6FB55
:10352000401B41F28831884201D9032057E61B48ED
:1035300068300068C0F340000028EFD1A06988B36C
:103540001648006800F00C00082873D0A069022813
:1035500064D112480838006820F080700F4908399B
:103560000860FFF7A3FB054606E0FFF79FFB401B43
:10357000022801D9032032E6084808380068C0F361
:1035800040600028F1D1D4E90701084347F6C07232
:1035900092FAA2F2B2FA82F2616A04E008380240BA
:1035A0000070004058E0914008430122A16AC2EB3C
:1035B00051014FF4403292FAA2F2B2FA82F29140F3
:1035C00008434FF0706292FAA2F2B2FA82F2E16A14
:1035D000914008434FF0E04292FAA2F2B2FA82F22E
:1035E000216B914008431D490860081F006840F0A6
:1035F0008070091F0860FFF759FB054606E0FFF7DA
:1036000055FB401B022801D90320E8E51348001FA1
:103610000068C0F340600028F1D01DE00F48001F93
:10362000006820F080700D49091F0860FFF73EFB1D
:10363000054607E00EE0FFF739FB401B022801D9E1
:103640000320CCE50548001F0068C0F34060002857
:10365000F1D101E00120C2E50020C0E504380240BC
:1036600070B504460E4615460CB9012070BD94F89D
:10367000450028B9002084F84400204600F01CF8DA
:1036800004F108012068FEF7F5FC3146A2682068C5
:10369000FEF730FD2946E36AD4E90102FEF7C6FCD5
:1036A000A168206850F8210040F00100A26821685C
:1036B00041F822000020D9E710B586B0044600BFCB
:1036C0002048006840F001001E4908600846006874
:1036D00000F00100009000BF00BF00BF194808388B
:1036E000006840F00800174908390860084600687B
:1036F00000F00800009000BF00BF00BF084600684F
:1037000040F0100008600846006800F010000090CB
:1037100000BF00BF4EF2B370019002200290012062
:103720000390032004900C20059001A90648FFF7A0
:10373000A3F94FF68070019001A90448FFF79CF9A6
:1037400006B010BD38380240000C024000100240A4
:10375000042808D14FF0E021096941F004014FF03D
:10376000E022116107E04FF0E021096921F0040136
:103770004FF0E0221161704770B504462546681E7F
:10378000B0F1807F01D301200FE0681E4FF0E021EF
:1037900048610F214FF0FF3004F0FAF800204FF09D
:1037A000E021886107200861002070BD10B5044643
:1037B0000CB9012010BD94F8390010B9204600F072
:1037C0000DF8022084F83900211D206804F068FCFF
:1037D000012084F839000020ECE7000038B50446E9
:1037E0000D492068884215D100BF0C48006840F0A0
:1037F00020000A4908600846006800F02000009098
:1038000000BF00BF012200213720FFF7C1FA372097
:10381000FFF7B1FA38BD0000001400404038024004
:1038200001460868C06840F001000A68D060086876
:10383000006840F001000A6810600020704770477F
:1038400001460022002391F8692091F86A3042EA8B
:10385000030070472DE9F04104462068C5692068DF
:1038600006682068876805F00F08B8F1000F0AD1D4
:1038700005F0200038B106F0200020B1204604F009
:10388000ACFDBDE8F081B8F1000F79D040F2011035
:103890003840002874D005F0010048B106F480706B
:1038A00030B1012021680862E06E40F00100E0665E
:1038B00005F0020048B107F0010030B10220216894
:1038C0000862E06E40F00400E06605F0040048B1D4
:1038D00007F0010030B1042021680862E06E40F07A
:1038E0000200E06605F0080060B106F0200010B9A3
:1038F00007F0010030B1082021680862E06E40F056
:103900000800E066E06E58B305F0200028B106F02C
:10391000200010B1204604F060FDE06E00F00800C9
:1039200020B92068806800F0400018B3204604F0F9
:1039300034FD2068806800F04000B8B120688068DD
:1039400020F0400021688860606E50B11748616EB9
:103950000865606EFEF7B2FF10B1606E016D8847BA
:103960000DE02046FFF76BFF09E009E02046FFF776
:1039700066FF04E02046FFF762FF0020E06680E774
:1039800005F0800030B106F0800018B1204604F048
:103990002FFF76E705F0400030B106F0400018B187
:1039A000204604F00AFD6CE700BF6AE78383000845
:1039B00010B504460CB9012010BDA06900B100E0AB
:1039C00000BF94F8690028B9002084F868002046F8
:1039D00000F02AF8242084F869002068006820F0AC
:1039E000010021680860204604F03CFD012800D158
:1039F000E2E7606A10B1204604F014FC20684068D9
:103A000020F49040216848602068806820F02A00F7
:103A1000216888602068006840F001002168086023
:103A2000204604F074FCC7E710B58CB004468C49FE
:103A30002068884240D100BF8A48006840F00100F9
:103A4000884908600846006800F00100069000BF41
:103A500000BF00BF83481430006840F01000814967
:103A6000143108600846006800F01000069000BF9E
:103A700000BF4815079002200890012009900220FD
:103A80000A9007200B9007A97748FEF7F5FF4FF43F
:103A90008060079007A97448FEF7EEFF2068006871
:103AA00040F02000216808602520FFF764F9022219
:103AB00011462520FFF76CF96C48844250D100BFB5
:103AC0006848006840F002006649086008460068DF
:103AD00000F00200019000BF00BF00BF614810303D
:103AE000006840F480205F49103108600846006893
:103AF00000F48020019000BF00BF08150290022052
:103B0000039001200490022005900720069002A94E
:103B10005748FEF7B1FF4FF40060029002A95448E5
:103B2000FEF7AAFF2068006840F0200021680860C6
:103B30002720FFF720F9032202212720FFF728F989
:103B400042F2273140F2E73004F094FA002049496C
:103B500008804948006820F001004749086000BF1C
:103B60004649206888423AD100BF3E48006840F08C
:103B700001003C4908600846006800F0010006901A
:103B800000BF00BF00BF37481030006840F400207D
:103B90003449103108600846006800F4002006909F
:103BA00000BF00BFC81407900220089001200990B0
:103BB00000200A9006200B9007A92B48FEF75CFF17
:103BC0004FF48050079007A92748FEF755FF34208F
:103BD000FFF7D1F8032211463420FFF7D9F828491E
:103BE000206888423AD100BF1E48006840F00200B9
:103BF0001C4908600846006800F00200069000BFFB
:103C000000BF00BF17481030006840F4801015490D
:103C1000103108600846006800F48010069000BF6C
:103C200000BF88140790022008900120099002200C
:103C30000A9008200B9007A90D48FEF71DFF4FF4CE
:103C40000050079007A90A48FEF716FF3520FFF736
:103C500092F8032211463520FFF79AF80CB010BDF8
:103C600000100140303802400000024018EA0320F2
:103C7000000402401200022000140040004C0040EA
:103C8000005000402DE9F84F04460D46164699466F
:103C90004FF0000A94F86A0020287AD105B116B9CD
:103CA0000120BDE8F88F00BF94F86800012801D119
:103CB0000220F6E7012084F8680000BF0020583495
:103CC00060612220A074FEF7F1FF824626806680A4
:103CD000583C00BFA068B0F5805F0AD1206920B9C8
:103CE00040F2FF10A4F85C001CE0FF20A4F85C0088
:103CF00018E0A06848B9206918B9FF20A4F85C0052
:103D000010E07F20A4F85C000CE0A068B0F1805FB8
:103D100008D1206918B97F20A4F85C0002E03F2098
:103D2000A4F85C0000BFB4F85C8024E0B4F85A004A
:103D3000401EA4F85A005346002220212046CDF808
:103D4000009004F08AFD08B10320AAE7A068B0F54E
:103D5000805F09D1206938B92F462068406A00EA9F
:103D600008003880AD1C06E02068406A08F0FF01BA
:103D7000084005F8010BB4F85A000028D6D12020DD
:103D800084F86A0000BF002084F8680000BF88E75C
:103D9000FFE7022085E710B5034693F86A00202864
:103DA0005BD101B10AB9012010BD00BF93F86800D2
:103DB000012801D10220F7E7012083F8680000BF45
:103DC0005965A3F85820A3F85A2000BF9868B0F5A9
:103DD000805F0AD1186920B940F2FF10A3F85C0097
:103DE0001CE0FF20A3F85C0018E0986848B9186947
:103DF00018B9FF20A3F85C0010E07F20A3F85C0056
:103E00000CE09868B0F1805F08D1186918B97F207C
:103E1000A3F85C0002E03F20A3F85C0000BF002094
:103E2000D866222083F86A0000BF002083F868006B
:103E300000BF1868006840F480701C682060186833
:103E4000806840F001001C68A0601868006840F0BD
:103E500020001C6820600020A6E70220A4E70000E4
:103E6000514A0168914262D15049098801F40041E8
:103E700000295CD14E490978642916D14D49097849
:103E8000552912D137214A4A11700021474A118021
:103E9000484909781288C2F30D02474B99544349A7
:103EA0000988491C414A118041E041490978372974
:103EB00017D140490978512913D13E4909783B4A25
:103EC0001288C2F30D023C4B995438490988491CA9
:103ED000364A11800021364A11700121374A11708B
:103EE00025E036490978012921D1324909782F4A3C
:103EF0001288C2F30D02304B99542C490988491C91
:103F00002A4A11802A490978491C294A1170114608
:103F100009782A290BD12549098841F40041234A0F
:103F200011806421224A11700021244A1170244A10
:103F30000168914237D12349098801F4004191BBBE
:103F40002049098801F4804171B11A4909780A2988
:103F500003D000211B4A118025E01A49098841F449
:103F60000041184A11801EE0124909780D2906D136
:103F70001449098841F48041124A118013E00D4927
:103F80000A781049098844F6FF7319400E4B5A54B9
:103F90000C490988491C0B4A118011460988C72918
:103FA00001DD002111807047005000401400022004
:103FB000180002201A000220D8E103201900022074
:103FC000004C004016000220A0E20320704700BF12
:103FD000FEE7000030B585B004460D46A1880122F9
:103FE0002068FEF75DFE14220C496846FCF786FB4C
:103FF000A088009069462068FEF73EFDA98801224E
:104000002868FEF74DFEA888009069462868FEF7EC
:1040100033FD232005F0DCF905B030BDB0E3000826
:104020002DE9F0470746884691461D46089E4146C1
:10403000384600F020F84A464146384604F040FD34
:1040400010B10020BDE8F08700240CE02A5D414655
:10405000384604F035FD08B12046F3E7462005F068
:10406000B7F9601C84B2B442F0DB4146384600F038
:1040700016F83046E6E770B504460D46A9880022DA
:104080002868FEF70DFE122005F0A2F9A188002293
:104090002068FEF705FE122005F09AF970BD70B594
:1040A00005460C46A18800222068FEF7F9FD0F2086
:1040B00005F08EF9A98801222868FEF7F1FD142089
:1040C00005F086F9A18801222068FEF7E9FD23208A
:1040D00005F07EF970BD00001CB5FDF7DFFEFEF7B0
:1040E000F3FD0923022219214FF4D87003F01AFFBF
:1040F000D82005F057F94FF4E13005F001FB4FF4FB
:10410000164005F013FB4FF4165005F0C1FA4FF4BA
:10411000612005F0D9FA05F01FFB03F04FFC00F019
:10412000FFF903F019F8FDF70DFF03F06BF805F048
:1041300089FA04F025FD00202949086029A02021E2
:104140000B464FF49672CDE9001028210A2002F0A8
:1041500047FF29A018210B464FF4AF72CDE900109C
:1041600050210A2002F03CFF2AA010210B46F02229
:10417000CDE900106E210A2002F032FF27A20321B0
:104180002CA004F059FD0FE0002232490320FEF775
:104190001DF8314908700846007800B108E02F4842
:1041A0000078401C2D4908702C4800780228EBDB71
:1041B00000BF2A480078022803DB29A004F03CFD58
:1041C00002E02AA004F038FD2BA010210B46F022BB
:1041D000CDE9001082210A2002F002FF1CBD000080
:1041E0001C0002204A696E674D696E672054656342
:1041F000686E6F6C6F6779005765617261626C659C
:1042000020536D617274204775696465204465763A
:104210006963650053544D3332463700BEB0C3F76F
:10422000A3ACC8C3C9FABBEEB8FCC3C0BAC3A3A150
:1042300000000000BBB6D3ADCAB9D3C3BEB0C3F74C
:10424000BFC6BCBCB5DA2564B4FAB2FAC6B7A1A33E
:1042500025730000E8EF0320C8E00320CBE0032033
:10426000B3F5CABCBBAFCAA7B0DC0000B3F5CABC8B
:10427000BBAFB3C9B9A60000436F6D706C657465C0
:104280000000000070B504460026094805884088F3
:1042900045430021084602F01FFD02F04BFF00BF1E
:1042A00002E004490C80761CAE42FAD370BD0000D7
:1042B000B4EB03200000086010B50446002C52D176
:1042C00054498871F02008804FF4A0704880084657
:1042D000808849F24131884205D04E48808845F2B5
:1042E0001031884214D12C204A4908812A20488163
:1042F0002B2088810846808845F21031884206D1FB
:104300004FF4A070434908804FF4F07048807DE07E
:104310004048808845F21051884210D14FF4305007
:104320003C4908814FF4285048814FF42C50888133
:104330004FF4F07008804FF44870488066E03548CC
:10434000808841F66311884260D12C203149088170
:104350002B2048812A2088814FF4F07008804FF488
:104360004870488052E001202A4988714FF4A070BB
:104370000880F02048800846808849F24131884210
:1043800005D02448808845F21031884207D12C207E
:10439000204908812A2048812B20888129E01D4856
:1043A000808845F21051884210D14FF4305019499D
:1043B00008814FF4285048814FF42C5088814FF4E5
:1043C000487008804FF4F070488012E011488088EF
:1043D00041F6631188420CD12C200E4908812A2015
:1043E00048812B2088814FF4487008804FF4F0708A
:1043F00048800848808845F21031884206D14FF441
:10440000F070044908804FF4A0704880002002F04A
:1044100029FB10BDB4EB032030B504460D463E48E1
:10442000808849F24131884205D03B48808845F276
:104430001031884214D13849488902F06FFE2012A9
:1044400002F060FEE0B202F05DFE3349888902F0BE
:1044500065FE281202F056FEE8B202F053FE54E068
:104460002D48808845F21051884220D12A49488938
:1044700002F054FE201202F045FE27494989491CEA
:1044800088B202F04BFEE0B202F03CFE224988897D
:1044900002F044FE281202F035FE1F498989491CAA
:1044A00088B202F03BFEE8B202F02CFE2DE01A4882
:1044B000808841F66311884227D11748807920B956
:1044C00015480088401E001B84B21349488902F039
:1044D00025FE201202F016FEE0B202F013FE2012BA
:1044E00002F010FEE0B202F00DFE0B49888902F0E6
:1044F00015FE281202F006FEE8B202F003FE2812B2
:1045000002F000FEE8B202F0FDFD03480089034915
:104510000880891C0A8030BDB4EB0320FEFF0760D1
:1045200000B595B000BFFE48006840F00800FC49A7
:1045300008600846006800F00800019000BF00BF56
:10454000C81410900120119012900320139010A90C
:10455000F448FEF791FA02F005FA4FF02040F249D4
:104560000860F2484860002088600021EE48C16081
:10457000016110214161090241628900C1620F207D
:10458000099000200A9050200B9000200F900F20DF
:104590000290002003900F2004900020089002AAAF
:1045A00009A9E148FFF75CF8322004F005FFD320A9
:1045B00002F0B4FD02F024FADD49888002F020FA0E
:1045C000DB49888002F01CFAD94988800846808837
:1045D0004FF6FF7101EA0020D549888002F010FAF9
:1045E000D34989880843D24988800846808849F29F
:1045F0004131884278D0D42002F090FD02F000FAD8
:10460000CB49888002F0FCF9C949888002F0F8F9AA
:10461000C7498880084680884FF6FF7101EA00206C
:10462000C349888002F0ECF9C14989880843C04930
:1046300088800846808845F21031884254D04FF473
:104640005A4002F06BFD02F0DBF9B94988804FF463
:104650005B4002F063FD02F0D3F9B549888008465B
:1046600080884FF6FF7101EA0020B14988804FF43D
:104670005C4002F053FD02F0C3F9AD49898808435C
:10468000AB49888008468088B0F5004F02D145F2DA
:1046900010508880A648808845F21051884223D067
:1046A000A12002F03BFD02F0ABF9A149888002F0A5
:1046B000A7F99F498880084680884FF6FF7101EA74
:1046C00000209B49888002F09BF99949898808431A
:1046D000974988800846808845F26171884203D1F5
:1046E00041F66310924988809148808849F24131AF
:1046F00088427CD1CF2002F011FD002002F002FDA3
:10470000C12002F0FFFC302002F0FCFCED2002F0A2
:1047100005FD642002F0F6FC032002F0F3FC1220F9
:1047200002F0F0FC812002F0EDFCE82002F0F6FC43
:10473000852002F0E7FC102002F0E4FC7A2002F071
:10474000E1FCCB2002F0EAFC392002F0DBFC2C205B
:1047500002F0D8FC002002F0D5FC342002F0D2FC9C
:10476000022002F0CFFCF72002F0D8FC202002F05B
:10477000C9FCEA2002F0D2FC002002F0C3FC0020B9
:1047800002F0C0FCC02002F0C9FC1B2002F0BAFC01
:10479000C12002F0C3FC012002F0B4FCC52002F0ED
:1047A000BDFC302002F0AEFC302002F0ABFCC72094
:1047B00002F0B4FCB72002F0A5FC362002F0AEFCFB
:1047C000482002F09FFC3A2002F0A8FC552002F09D
:1047D00099FCB12002F0A2FC002002F093FC1A2008
:1047E00002F090FCB62002F099FC0A2000E0A5E05F
:1047F00002F088FCA22002F085FCF22002F08EFC80
:10480000002002F07FFC262002F088FC012002F04C
:1048100079FCE02002F082FC0F2002F073FC2A20D9
:1048200002F070FC282002F06DFC082002F06AFC07
:104830000E2002F067FC082002F064FC542002F015
:1048400061FCA92002F05EFC432002F05BFC0A2020
:1048500002F058FC0F2002F055FC002002F052FC40
:10486000002002F04FFC002002F04CFC002002F07F
:1048700049FCE12002F052FC002002F043FC15202C
:1048800002F040FC172002F03DFC072002F03AFC49
:10489000112002F037FC062002F034FC2B2002F03D
:1048A00031FC562002F02EFC3C2002F02BFC0520AF
:1048B00002F028FC102002F025FC0F2002F022FC60
:1048C0003F2002F01FFC3F2002F01CFC0F2002F0F2
:1048D00019FC2B2002F022FC002002F013FC002027
:1048E00002F010FC012002F00DFC3F2002F00AFC57
:1048F0002A2002F013FC002002F004FC002002F049
:1049000001FC002002F0FEFBEF2002F0FBFB112077
:1049100002F004FC782004F04FFD29200AE000009A
:1049200030380240000C024068EB0320040100A074
:10493000B4EB032002F0F2FB01F0CBBFFE4880880D
:1049400045F21031884240F07C87ED2002F0E6FB12
:10495000012002F0D7FBFE2002F0D4FBEE2002F093
:10496000DDFBDE2002F0CEFB212002F0CBFBF120AC
:1049700002F0D4FB012002F0C5FBDF2002F0CEFBE9
:10498000102002F0BFFBC42002F0C8FB8F2002F011
:10499000B9FBC62002F0C2FB002002F0B3FBE2200C
:1049A00002F0B0FBE22002F0ADFBE22002F0AAFB35
:1049B000BF2002F0B3FBAA2002F0A4FBB02002F05B
:1049C000ADFB0D2002F09EFB002002F09BFB0D20B2
:1049D00002F098FB002002F095FB112002F092FB00
:1049E000002002F08FFB192002F08CFB002002F067
:1049F00089FB212002F086FB002002F083FB2D20A2
:104A000002F080FB002002F07DFB3D2002F07AFBEB
:104A1000002002F077FB5D2002F074FB002002F022
:104A200071FB5D2002F06EFB002002F06BFBB120F9
:104A300002F074FB802002F065FB002002F062FBB4
:104A40008B2002F05FFB002002F05CFB962002F05E
:104A500059FB002002F056FBB22002F05FFB002061
:104A600002F050FB002002F04DFB022002F04AFB56
:104A7000002002F047FB032002F044FB002002F07C
:104A800041FBB32002F04AFB002002F03BFB002078
:104A900002F038FB002002F035FB002002F032FB70
:104AA000002002F02FFB002002F02CFB002002F07F
:104AB00029FB002002F026FB002002F023FB00204F
:104AC00002F020FB002002F01DFB002002F01AFB88
:104AD000002002F017FB002002F014FB002002F07F
:104AE00011FB002002F00EFB002002F00BFB002067
:104AF00002F008FB002002F005FB002002F002FBA0
:104B0000002002F0FFFA002002F0FCFA002002F080
:104B1000F9FA002002F0F6FAB42002F0FFFA8B2036
:104B200002F0F0FA002002F0EDFA962002F0EAFA24
:104B3000002002F0E7FAA12002F0E4FA002002F0DF
:104B4000E1FAB52002F0EAFA022002F0DBFA0020D6
:104B500002F0D8FA032002F0D5FA002002F0D2FACF
:104B6000042002F0CFFA002002F0CCFAB62002F0C6
:104B7000D5FA002002F0C6FA002002F0C3FAB720EE
:104B800002F0CCFA002002F0BDFA002002F0BAFADE
:104B90003F2002F0B7FA002002F0B4FA5E2002F0E3
:104BA000B1FA002002F0AEFA642002F0ABFA002065
:104BB00002F0A8FA8C2002F0A5FA002002F0A2FA76
:104BC000AC2002F09FFA002002F09CFADC2002F0F8
:104BD00099FA002002F096FA702002F093FA002071
:104BE00002F090FA902002F08DFA002002F08AFA8A
:104BF000EB2002F087FA002002F084FADC2002F0B9
:104C000081FA002002F07EFAB82002F087FA002034
:104C100002F078FA002002F075FA002002F072FA31
:104C2000002002F06FFA002002F06CFA002002F07F
:104C300069FA002002F066FA002002F063FABA2056
:104C400002F06CFA242002F05DFA002002F05AFA19
:104C5000002002F057FA002002F054FAC12002F0BE
:104C60005DFA202002F04EFA002002F04BFA5420A8
:104C700002F048FA002002F045FAFF2002F042FA62
:104C8000002002F03FFAC22002F048FA0A2002F0A7
:104C900039FA002002F036FA042002F033FA00203C
:104CA00002F030FAC32002F039FA3C2002F02AFA6E
:104CB000002002F027FA3A2002F024FA002002F045
:104CC00021FA392002F01EFA002002F01BFA3720E8
:104CD00002F018FA002002F015FA3C2002F012FA55
:104CE000002002F00FFA362002F00CFA002002F049
:104CF00009FA322002F006FA002002F003FA2F200F
:104D000002F000FA002002F0FDF92C2002F0FAF97E
:104D1000002002F0F7F9292002F0F4F9002002F057
:104D2000F1F9262002F0EEF9002002F0EBF9242040
:104D300002F0E8F9002001E0B4EB032002F0E2F910
:104D4000242002F0DFF9002002F0DCF9232002F039
:104D5000D9F9002002F0D6F93C2002F0D3F9002066
:104D600002F0D0F9362002F0CDF9002002F0CAF9A5
:104D7000322002F0C7F9002002F0C4F92F2002F01F
:104D8000C1F9002002F0BEF92C2002F0BBF900208E
:104D900002F0B8F9292002F0B5F9002002F0B2F9CA
:104DA000262002F0AFF9002002F0ACF9242002F036
:104DB000A9F9002002F0A6F9242002F0A3F90020AE
:104DC00002F0A0F9232002F09DF9002002F09AF9E8
:104DD000C42002F0A3F9622002F094F9002002F04E
:104DE00091F9052002F08EF9002002F08BF9842061
:104DF00002F088F9002002F085F9F02002F082F933
:104E0000002002F07FF9182002F07CF9002002F067
:104E100079F9A42002F076F9002002F073F9182045
:104E200002F070F9002002F06DF9502002F06AF9EA
:104E3000002002F067F90C2002F064F9002002F073
:104E400061F9172002F05EF9002002F05BF995206D
:104E500002F058F9002002F055F9F32002F052F95F
:104E6000002002F04FF9E62002F04CF9002002F099
:104E700049F9C52002F052F9322002F043F900202E
:104E800002F040F9442002F03DF9002002F03AF926
:104E9000652002F037F9002002F034F9762002F0A4
:104EA00031F9002002F02EF9882002F02BF90020C1
:104EB00002F028F9C62002F031F9202002F022F990
:104EC000002002F01FF9172002F01CF9002002F068
:104ED00019F9012002F016F9002002F013F9C72099
:104EE00002F01CF9002002F00DF9002002F00AF98E
:104EF000002002F007F9002002F004F9C82002F0B7
:104F00000DF9002002F0FEF8002002F0FBF800206E
:104F100002F0F8F8002002F0F5F8C92002F0FEF8DF
:104F2000002002F0EFF8002002F0ECF8002002F080
:104F3000E9F8002002F0E6F8002002F0E3F8002093
:104F400002F0E0F8002002F0DDF8002002F0DAF8CC
:104F5000002002F0D7F8002002F0D4F8002002F080
:104F6000D1F8002002F0CEF8002002F0CBF80020AB
:104F700002F0C8F8002002F0C5F8002002F0C2F8E4
:104F8000E02002F0CBF8162002F0BCF8002002F07E
:104F9000B9F81C2002F0B6F8002002F0B3F8212086
:104FA00002F0B0F8002002F0ADF8362002F0AAF8C6
:104FB000002002F0A7F8462002F0A4F8002002F03A
:104FC000A1F8522002F09EF8002002F09BF8642025
:104FD00002F098F8002002F095F87A2002F092F89A
:104FE000002002F08FF88B2002F08CF8002002F0F5
:104FF00089F8992002F086F8002002F083F8A820B2
:1050000002F080F8002002F07DF8B92002F07AF872
:10501000002002F077F8C42002F074F8002002F0BB
:1050200071F8CA2002F06EF8002002F06BF8D2206E
:1050300002F068F8002002F065F8D92002F062F86A
:10504000002002F05FF8E02002F05CF8002002F09F
:1050500059F8F32002F056F8002002F053F8E1204E
:1050600002F05CF8162002F04DF8002002F04AF839
:105070001C2002F047F8002002F044F8222002F041
:1050800041F8002002F03EF8362002F03BF8002004
:1050900002F038F8452002F035F8002002F032F82E
:1050A000522002F02FF8002002F02CF8642002F0C9
:1050B00029F8002002F026F87A2002F023F80020D8
:1050C00002F020F88B2002F01DF8002002F01AF800
:1050D000992002F017F8002002F014F8A82002F03E
:1050E00011F8002002F00EF8B92002F00BF80020B1
:1050F00002F008F8C42002F005F8002002F002F8DF
:10510000CA2001F0FFFF002001F0FCFFD22001F0D7
:10511000F9FF002001F0F6FFD82001F0F3FF002096
:1051200001F0F0FFE02001F0EDFF002001F0EAFFC8
:10513000F32001F0E7FF002001F0E4FFE22001F09E
:10514000EDFF052001F0DEFF002001F0DBFF0B206A
:1051500001F0D8FF002001F0D5FF1B2001F0D2FFA5
:10516000002001F0CFFF342001F0CCFF002001F03F
:10517000C9FF442001F0C6FF002001F0C3FF4F200B
:1051800001F0C0FF002001F0BDFF612001F0BAFF77
:10519000002001F0B7FF792001F0B4FF002001F0FA
:1051A000B1FF882001F0AEFF002001F0ABFF972097
:1051B00001F0A8FF002001F0A5FFA62001F0A2FF4A
:1051C000002001F09FFFB72001F09CFF002001F0BC
:1051D00099FFC22001F096FF002001F093FFC72045
:1051E00001F090FF002001F08DFFD12001F08AFF37
:1051F000002001F087FFD62001F084FF002001F09D
:1052000081FFDD2001F07EFF002001F07BFFF32015
:1052100001F078FF002001F075FFE32001F07EFF30
:10522000052001F06FFF002001F06CFF0A2001F063
:1052300069FF002001F066FF1C2001F063FF0020E1
:1052400001F060FF332001F05DFF002001F05AFF04
:10525000442001F057FF002001F054FF502001F0DE
:1052600051FF002001F04EFF622001F04BFF0020B3
:1052700001F048FF782001F045FF002001F042FFD7
:10528000882001F03FFF002001F03CFF972001F053
:1052900039FF002001F036FFA62001F033FF002087
:1052A00001F030FFB72001F02DFF002001F02AFFB0
:1052B000C22001F027FF002001F024FFC72001F0E9
:1052C00021FF002001F01EFFD12001F01BFF002074
:1052D00001F018FFD52001F015FF002001F012FFAA
:1052E000DD2001F00FFF002001F00CFFF32001F0A2
:1052F00009FF002001F006FFE42001F00FFF01206C
:1053000001F000FF002001F0FDFE012001F0FAFE97
:10531000002001F0F7FE022001F0F4FE002001F071
:10532000F1FE2A2001F0EEFE002001F0EBFE3C2011
:1053300001F0E8FE002001F0E5FE4B2001F0E2FE66
:10534000002001F0DFFE5D2001F0DCFE002001F016
:10535000D9FE742001F0D6FE002001F0D3FE842097
:1053600001F0D0FE002001F0CDFE932001F0CAFE36
:10537000002001F0C7FEA22001F0C4FE002001F0D1
:10538000C1FEB32001F0BEFE002001F0BBFEBE2036
:1053900001F0B8FE002001F0B5FEC42001F0B2FE1D
:1053A000002001F0AFFECD2001F0ACFE002001F0A6
:1053B000A9FED32001F0A6FE002001F0A3FEDD200F
:1053C00001F0A0FE002001F09DFEF32001F09AFE06
:1053D000002001F097FEE52001F0A0FE002001F082
:1053E00091FE002001F08EFE002001F08BFE0020D7
:1053F00001F088FE022001F085FE002001F082FE0F
:10540000292001F07FFE002001F07CFE3C2001F00D
:1054100079FE002001F076FE4B2001F073FE0020A3
:1054200001F070FE5D2001F06DFE002001F06AFECB
:10543000742001F067FE002001F064FE842001F07A
:1054400061FE002001F05EFE932001F05BFE002073
:1054500001F058FEA22001F055FE002001F052FE9E
:10546000B32001F04FFE002001F04CFEBE2001F001
:1054700049FE002001F046FEC42001F043FE00205A
:1054800001F040FECD2001F03DFE002001F03AFE8B
:10549000D32001F037FE002001F034FEDC2001F0C3
:1054A00031FE002001F02EFEF32001F02BFE002043
:1054B00001F028FEE62001F031FE112001F022FE6D
:1054C000002001F01FFE342001F01CFE002001F03E
:1054D00019FE562001F016FE002001F013FE762082
:1054E00001F010FE002001F00DFE772001F00AFE11
:1054F000002001F007FE662001F004FE002001F00C
:1055000001FE882001F0FEFD002001F0FBFD992046
:1055100001F0F8FD002001F0F5FDBB2001F0F2FDE7
:10552000002001F0EFFD992001F0ECFD002001F0DA
:10553000E9FD662001F0E6FD002001F0E3FD5520C5
:1055400001F0E0FD002001F0DDFD552001F0DAFD65
:10555000002001F0D7FD452001F0D4FD002001F02E
:10556000D1FD432001F0CEFD002001F0CBFD442011
:1055700001F0C8FD002001F0C5FDE72001F0CEFDDF
:10558000322001F0BFFD002001F0BCFD552001F0EC
:10559000B9FD002001F0B6FD762001F0B3FD00203A
:1055A00001F0B0FD662001F0ADFD002001F0AAFD84
:1055B000672001F0A7FD002001F0A4FD672001F0A5
:1055C000A1FD002001F09EFD872001F09BFD002041
:1055D00001F098FD992001F095FD002001F092FD69
:1055E000BB2001F08FFD002001F08CFD992001F01F
:1055F00089FD002001F086FD772001F083FD002069
:1056000001F080FD442001F07DFD002001F07AFDD5
:10561000562001F077FD002001F074FD232001F0F9
:1056200071FD002001F06EFD332001F06BFD0020C4
:1056300001F068FD452001F065FD002001F062FDEC
:10564000E82001F06BFD002001F05CFD002001F07E
:1056500059FD992001F056FD002001F053FD8720EF
:1056600001F050FD002001F04DFD882001F04AFDC1
:10567000002001F047FD772001F044FD002001F0FB
:1056800041FD662001F03EFD002001F03BFD882039
:1056900001F038FD002001F035FDAA2001F032FDB7
:1056A000002001F02FFDBB2001F02CFD002001F0B7
:1056B00029FD992001F026FD002001F023FD662040
:1056C00001F020FD002001F01DFD552001F01AFD24
:1056D000002001F017FD552001F014FD002001F01D
:1056E00011FD442001F00EFD002001F00BFD4420CF
:1056F00001F008FD002001F005FD552001F002FD3C
:10570000002001F0FFFCE92001F008FDAA2001F0D3
:10571000F9FC002001F0F6FC002001F0F3FC002071
:1057200001F0F0FC002001F0F9FCAA2001F0EAFCF5
:10573000CF2001F0F3FC002001F0E4FC002001F098
:10574000E1FC002001F0DEFC002001F0DBFC002089
:1057500001F0D8FC002001F0D5FC002001F0D2FCC3
:10576000002001F0CFFC002001F0CCFC002001F073
:10577000C9FC002001F0C6FC002001F0C3FC0020A1
:1057800001F0C0FC002001F0BDFC002001F0BAFCDB
:10579000002001F0B7FC002001F0B4FCF02001F083
:1057A000BDFC002001F0AEFC502001F0ABFC00205D
:1057B00001F0A8FC002001F0A5FC002001F0A2FCF3
:1057C000F32001F0ABFC002001F09CFCF92001F07B
:1057D000A5FC062001F096FC102001F093FC292086
:1057E00001F090FC002001F08DFC3A2001F096FCC5
:1057F000552001F087FC112001F090FC642003F09B
:10580000DBFD292001F08AFC352001F087FC002017
:1058100001F078FC512001F081FCFF2001F072FCC6
:10582000532001F07BFC2C2001F06CFC552001F092
:1058300075FC822001F066FC2C2001F06FFC01F069
:1058400048B8FE48808845F2105188427ED15521E3
:105850004FF4704001F078FCAA214FF2010001F0F2
:1058600073FC52214FF2020001F06EFC08214FF24E
:10587000030001F069FC01214FF2040001F064FC17
:105880000D214FF4304001F05FFC0D214BF201007F
:1058900001F05AFC0D214BF2020001F055FC3421BD
:1058A0004FF4364001F050FC34214BF2016001F01E
:1058B0004BFC34214BF2026001F046FC0D214FF409
:1058C000314001F041FC0D214BF2011001F03CFC94
:1058D0000D214BF2021001F037FC34214FF4374018
:1058E00001F032FC34214BF2017001F02DFC342127
:1058F0004BF2027001F028FC00214FF4324001F01D
:1059000023FC00214BF2012001F01EFC00214BF290
:10591000022001F019FC24214FF4384001F014FC5E
:1059200024214BF6010001F00FFC24214BF602006C
:1059300001F00AFC01214FF43F4001F005FC0F216A
:105940004FF4334001F000FC0F2100E0FEE34BF286
:10595000013001F0F9FB0F214BF2023001F0F4FBB2
:1059600034214FF4394001F0EFFB34214BF60110A4
:1059700001F0EAFB34214BF6021001F0E5FB0821AF
:105980004FF4354001F0E0FB08214BF2015001F0EB
:10599000DBFB08214BF2025001F0D6FB03214FF450
:1059A000424001F0D1FB24214FF43A4001F0CCFBFE
:1059B00024214BF6012001F0C7FB24214BF60220E5
:1059C00001F0C2FB00214FF43C4001F0BDFB782107
:1059D0004BF6014001F0B8FB00214BF6024001F00C
:1059E000B3FB00214FF43D4001F0AEFB78214BF6B4
:1059F000015001F0A9FB00214BF6025001F0A4FB7D
:105A000000214FF43E4001F09FFB64214BF6016002
:105A100001F09AFB00214FF4514001F095FB332136
:105A20004DF2011001F090FB00214DF2021001F047
:105A30008BFB34214DF2031001F086FB00214DF267
:105A4000041001F081FB3A214DF2051001F07CFBBE
:105A500000214DF2061001F077FB4A214DF20710AC
:105A600001F072FB00214DF2081001F06DFB5C218A
:105A70004DF2091001F068FB00214DF20A1001F00F
:105A800063FB81214DF20B1001F05EFB00214DF212
:105A90000C1001F059FBA6214DF20D1001F054FB42
:105AA00000214DF20E1001F04FFBE5214DF20F10D9
:105AB00001F04AFB01214DF2101001F045FB1321CA
:105AC0004DF2111001F040FB01214DF2121001F0D6
:105AD0003BFB54214DF2131001F036FB01214DF236
